{
  "transactions": [
    {
      "hash": "0xdd7cad41f71e375a80931d5e4b3f15b7ee0fb25347a06f6a7bbac20d16a078d3",
      "transactionType": "CREATE",
      "contractName": "Profiles",
      "contractAddress": "0x5fbdb2315678afecb367f032d93f642f64180aa3",
      "function": null,
      "arguments": [
        "0x0000000000000000000000000000000000001234",
        "0xf39Fd6e51aad88F6F4ce6aB8827279cffFb92266"
      ],
      "transaction": {
        "from": "0xf39fd6e51aad88f6f4ce6ab8827279cfffb92266",
        "gas": "0x64f6d",
        "value": "0x0",
        "input": "0x60c060405234801561000f575f5ffd5b5060405161061e38038061061e833981810160405281019061003191906100fe565b8173ffffffffffffffffffffffffffffffffffffffff1660808173ffffffffffffffffffffffffffffffffffffffff16815250508073ffffffffffffffffffffffffffffffffffffffff1660a08173ffffffffffffffffffffffffffffffffffffffff1681525050505061013c565b5f5ffd5b5f73ffffffffffffffffffffffffffffffffffffffff82169050919050565b5f6100cd826100a4565b9050919050565b6100dd816100c3565b81146100e7575f5ffd5b50565b5f815190506100f8816100d4565b92915050565b5f5f60408385031215610114576101136100a0565b5b5f610121858286016100ea565b9250506020610132858286016100ea565b9150509250929050565b60805160a0516104b461016a5f395f818160ec01528181610110015261019e01525f61026901526104b45ff3fe608060405234801561000f575f5ffd5b506004361061004a575f3560e01c80630656e6cb1461004e57806338013f021461007e578063636fb7d51461009c5780638004ac2a146100b8575b5f5ffd5b610068600480360381019061006391906102e9565b6100d6565b604051610075919061032c565b60405180910390f35b6100866100ea565b6040516100939190610354565b60405180910390f35b6100b660048036038101906100b19190610397565b61010e565b005b6100c0610267565b6040516100cd9190610354565b60405180910390f35b5f602052805f5260405f205f915090505481565b7f000000000000000000000000000000000000000000000000000000000000000081565b7f000000000000000000000000000000000000000000000000000000000000000073ffffffffffffffffffffffffffffffffffffffff163373ffffffffffffffffffffffffffffffffffffffff161461019c576040517f08c379a00000000000000000000000000000000000000000000000000000000081526004016101939061042f565b60405180910390fd5b7f000000000000000000000000000000000000000000000000000000000000000073ffffffffffffffffffffffffffffffffffffffff16818373ffffffffffffffffffffffffffffffffffffffff167fdf3d52f91c217cecdf0f0ca8f90fddeb94f26c26df4dc6d178b4e1e39b0aa1344260405161021a9190610465565b60405180910390a4805f5f8473ffffffffffffffffffffffffffffffffffffffff1673ffffffffffffffffffffffffffffffffffffffff1681526020019081526020015f20819055505050565b7f000000000000000000000000000000000000000000000000000000000000000081565b5f5ffd5b5f73ffffffffffffffffffffffffffffffffffffffff82169050919050565b5f6102b88261028f565b9050919050565b6102c8816102ae565b81146102d2575f5ffd5b50565b5f813590506102e3816102bf565b92915050565b5f602082840312156102fe576102fd61028b565b5b5f61030b848285016102d5565b91505092915050565b5f819050919050565b61032681610314565b82525050565b5f60208201905061033f5f83018461031d565b92915050565b61034e816102ae565b82525050565b5f6020820190506103675f830184610345565b92915050565b61037681610314565b8114610380575f5ffd5b50565b5f813590506103918161036d565b92915050565b5f5f604083850312156103ad576103ac61028b565b5b5f6103ba858286016102d5565b92505060206103cb85828601610383565b9150509250929050565b5f82825260208201905092915050565b7f756e617574686f72697a656420636f6e74726163742063616c6c0000000000005f82015250565b5f610419601a836103d5565b9150610424826103e5565b602082019050919050565b5f6020820190508181035f8301526104468161040d565b9050919050565b5f819050919050565b61045f8161044d565b82525050565b5f6020820190506104785f830184610456565b9291505056fea26469706673582212207063c406eb102d1c39f1ccb7b04952966461614cc9c4a024bd8413f5f954477464736f6c634300081e00330000000000000000000000000000000000000000000000000000000000001234000000000000000000000000f39fd6e51aad88f6f4ce6ab8827279cfffb92266",
        "nonce": "0x0",
        "chainId": "0x7a69"
      },
      "additionalContracts": [],
      "isFixedGasLimit": false
    },
    {
      "hash": "0x87892dcad386ab0367bdb21216497f327d52096b0978bb0b11d62a2c548c7456",
      "transactionType": "CALL",
      "contractName": "Profiles",
      "contractAddress": "0x5fbdb2315678afecb367f032d93f642f64180aa3",
      "function": "addProfile(address,bytes32)",
      "arguments": [
        "0x70997970C51812dc3A010C7d01b50e0d17dc79C8",
        "0x6cf174318a1edbf8248425cc7f8f4c5cc4ab14c90925520a744deef78953d603"
      ],
      "transaction": {
        "from": "0xf39fd6e51aad88f6f4ce6ab8827279cfffb92266",
        "to": "0x5fbdb2315678afecb367f032d93f642f64180aa3",
        "gas": "0x10d61",
        "value": "0x0",
        "input": "0x636fb7d500000000000000000000000070997970c51812dc3a010c7d01b50e0d17dc79c86cf174318a1edbf8248425cc7f8f4c5cc4ab14c90925520a744deef78953d603",
        "nonce": "0x1",
        "chainId": "0x7a69"
      },
      "additionalContracts": [],
      "isFixedGasLimit": false
    },
    {
      "hash": "0xc7da01f9240313c85c1972a7e63f96d0e63b73e42e221daae094d01a53d82e25",
      "transactionType": "CALL",
      "contractName": "Profiles",
      "contractAddress": "0x5fbdb2315678afecb367f032d93f642f64180aa3",
      "function": "addProfile(address,bytes32)",
      "arguments": [
        "0x3C44CdDdB6a900fa2b585dd299e03d12FA4293BC",
        "0xb25a5a1c7caba59258dbea03242817ea904fd0af6229cb729f1385fcbf07d942"
      ],
      "transaction": {
        "from": "0xf39fd6e51aad88f6f4ce6ab8827279cfffb92266",
        "to": "0x5fbdb2315678afecb367f032d93f642f64180aa3",
        "gas": "0xfe59",
        "value": "0x0",
        "input": "0x636fb7d50000000000000000000000003c44cdddb6a900fa2b585dd299e03d12fa4293bcb25a5a1c7caba59258dbea03242817ea904fd0af6229cb729f1385fcbf07d942",
        "nonce": "0x2",
        "chainId": "0x7a69"
      },
      "additionalContracts": [],
      "isFixedGasLimit": false
    },
    {
      "hash": "0xacd41e03fc1f4c0e44dcef89e6719a94861c5798cc27b9774f63360b536aa404",
      "transactionType": "CALL",
      "contractName": "Profiles",
      "contractAddress": "0x5fbdb2315678afecb367f032d93f642f64180aa3",
      "function": "addProfile(address,bytes32)",
      "arguments": [
        "0x90F79bf6EB2c4f870365E785982E1f101E93b906",
        "0x9498a1d7ce43710ec2c6286af9e143b9e839f10b60ff4103e9499ae3cacc1488"
      ],
      "transaction": {
        "from": "0xf39fd6e51aad88f6f4ce6ab8827279cfffb92266",
        "to": "0x5fbdb2315678afecb367f032d93f642f64180aa3",
        "gas": "0x10d61",
        "value": "0x0",
        "input": "0x636fb7d500000000000000000000000090f79bf6eb2c4f870365e785982e1f101e93b9069498a1d7ce43710ec2c6286af9e143b9e839f10b60ff4103e9499ae3cacc1488",
        "nonce": "0x3",
        "chainId": "0x7a69"
      },
      "additionalContracts": [],
      "isFixedGasLimit": false
    },
    {
      "hash": "0xa1fafba6ca266bcdba31549f35ee34c07f5011f7652bb915b9c8ad53f4c95922",
      "transactionType": "CALL",
      "contractName": "Profiles",
      "contractAddress": "0x5fbdb2315678afecb367f032d93f642f64180aa3",
      "function": "addProfile(address,bytes32)",
      "arguments": [
        "0x15d34AAf54267DB7D7c367839AAf71A00a2C6A65",
        "0x2a423060727a4831dc33916d06b48bcaaa0e914f0dcc984e7591a365b3e5bf12"
      ],
      "transaction": {
        "from": "0xf39fd6e51aad88f6f4ce6ab8827279cfffb92266",
        "to": "0x5fbdb2315678afecb367f032d93f642f64180aa3",
        "gas": "0x10d61",
        "value": "0x0",
        "input": "0x636fb7d500000000000000000000000015d34aaf54267db7d7c367839aaf71a00a2c6a652a423060727a4831dc33916d06b48bcaaa0e914f0dcc984e7591a365b3e5bf12",
        "nonce": "0x4",
        "chainId": "0x7a69"
      },
      "additionalContracts": [],
      "isFixedGasLimit": false
    },
    {
      "hash": "0xd45d5c29fd470b9c3a95960f1da070e32c2a0f0b8841d878017ec8e0cf7cbceb",
      "transactionType": "CALL",
      "contractName": "Profiles",
      "contractAddress": "0x5fbdb2315678afecb367f032d93f642f64180aa3",
      "function": "addProfile(address,bytes32)",
      "arguments": [
        "0x9965507D1a55bcC2695C58ba16FB37d819B0A4dc",
        "0xf7b3690e888f56aab8207ebc26898505bade655f744808634be5e4523dc80816"
      ],
      "transaction": {
        "from": "0xf39fd6e51aad88f6f4ce6ab8827279cfffb92266",
        "to": "0x5fbdb2315678afecb367f032d93f642f64180aa3",
        "gas": "0x10d61",
        "value": "0x0",
        "input": "0x636fb7d50000000000000000000000009965507d1a55bcc2695c58ba16fb37d819b0a4dcf7b3690e888f56aab8207ebc26898505bade655f744808634be5e4523dc80816",
        "nonce": "0x5",
        "chainId": "0x7a69"
      },
      "additionalContracts": [],
      "isFixedGasLimit": false
    }
  ],
  "receipts": [
    {
      "status": "0x1",
      "cumulativeGasUsed": "0x4daa3",
      "logs": [],
      "logsBloom": "0x00000000000000000000000000000000000000000000000000000000000000000000000000000000000000000000000000000000000000000000000000000000000000000000000000000000000000000000000000000000000000000000000000000000000000000000000000000000000000000000000000000000000000000000000000000000000000000000000000000000000000000000000000000000000000000000000000000000000000000000000000000000000000000000000000000000000000000000000000000000000000000000000000000000000000000000000000000000000000000000000000000000000000000000000000000000",
      "type": "0x2",
      "transactionHash": "0xdd7cad41f71e375a80931d5e4b3f15b7ee0fb25347a06f6a7bbac20d16a078d3",
      "transactionIndex": "0x0",
      "blockHash": "0x49357c0311f12d88f4a77f8754b7898efde6a1dc7e4aa1a985435e76e229a0ea",
      "blockNumber": "0x1",
      "gasUsed": "0x4daa3",
      "effectiveGasPrice": "0x3b9aca01",
      "blobGasPrice": "0x1",
      "from": "0xf39fd6e51aad88f6f4ce6ab8827279cfffb92266",
      "to": null,
      "contractAddress": "0x5fbdb2315678afecb367f032d93f642f64180aa3"
    },
    {
      "status": "0x1",
      "cumulativeGasUsed": "0xb831",
      "logs": [
        {
          "address": "0x5fbdb2315678afecb367f032d93f642f64180aa3",
          "topics": [
            "0xdf3d52f91c217cecdf0f0ca8f90fddeb94f26c26df4dc6d178b4e1e39b0aa134",
            "0x00000000000000000000000070997970c51812dc3a010c7d01b50e0d17dc79c8",
            "0x6cf174318a1edbf8248425cc7f8f4c5cc4ab14c90925520a744deef78953d603",
            "0x000000000000000000000000f39fd6e51aad88f6f4ce6ab8827279cfffb92266"
          ],
          "data": "0x000000000000000000000000000000000000000000000000000000006a3f5089",
          "blockHash": "0xa6c54e30ec7528f1482f0db0cf9421bdc1c7a26027396756162066fa139e4fe3",
          "blockNumber": "0x2",
          "blockTimestamp": "0x6a3f5089",
          "transactionHash": "0x87892dcad386ab0367bdb21216497f327d52096b0978bb0b11d62a2c548c7456",
          "transactionIndex": "0x0",
          "logIndex": "0x0",
          "removed": false
        }
      ],
      "logsBloom": "0x00000000000000000002000000000000000000000000000000000000000000000000000000000000000000000000000000000000000000000000000000000000000000000000000002000000000000000000000000000000000000000000000000000840000000000000000100000000000000000000000000000000000000000000000400000000000000000000000000000000000000000000000200001000000000000000000000000000000000000000000000000000000000080000000000000040000000200000000000000000000000002000000000001000000000000000000000000008000000000000000001000000000000000000000000000000",
      "type": "0x2",
      "transactionHash": "0x87892dcad386ab0367bdb21216497f327d52096b0978bb0b11d62a2c548c7456",
      "transactionIndex": "0x0",
      "blockHash": "0xa6c54e30ec7528f1482f0db0cf9421bdc1c7a26027396756162066fa139e4fe3",
      "blockNumber": "0x2",
      "gasUsed": "0xb831",
      "effectiveGasPrice": "0x344fe410",
      "blobGasPrice": "0x1",
      "from": "0xf39fd6e51aad88f6f4ce6ab8827279cfffb92266",
      "to": "0x5fbdb2315678afecb367f032d93f642f64180aa3",
      "contractAddress": null
    },
    {
      "status": "0x1",
      "cumulativeGasUsed": "0xb825",
      "logs": [
        {
          "address": "0x5fbdb2315678afecb367f032d93f642f64180aa3",
          "topics": [
            "0xdf3d52f91c217cecdf0f0ca8f90fddeb94f26c26df4dc6d178b4e1e39b0aa134",
            "0x0000000000000000000000003c44cdddb6a900fa2b585dd299e03d12fa4293bc",
            "0xb25a5a1c7caba59258dbea03242817ea904fd0af6229cb729f1385fcbf07d942",
            "0x000000000000000000000000f39fd6e51aad88f6f4ce6ab8827279cfffb92266"
          ],
          "data": "0x000000000000000000000000000000000000000000000000000000006a3f5089",
          "blockHash": "0xfd7a5b09782b46ad9764c16633b2af5cf87c084186aa23c7a28e3bede886ef6e",
          "blockNumber": "0x3",
          "blockTimestamp": "0x6a3f5089",
          "transactionHash": "0xc7da01f9240313c85c1972a7e63f96d0e63b73e42e221daae094d01a53d82e25",
          "transactionIndex": "0x0",
          "logIndex": "0x0",
          "removed": false
        }
      ],
      "logsBloom": "0x00000000000000000000000000000000000000000000000000000000000000000000000000000000000000000000000000000000000000000000000000100000000000000000000002000000000000000000000000000000000000000000000800000040000000000000000100000000000800000000000000000000000000000000000400000000000000000000000000000000000000000000000200000000000000000000200000000000000000000000000000000000000000080000000000000040000000200000000000040000000000002000000000000000000000000000000000000000000000000000000000000000002000000000000000000000",
      "type": "0x2",
      "transactionHash": "0xc7da01f9240313c85c1972a7e63f96d0e63b73e42e221daae094d01a53d82e25",
      "transactionIndex": "0x0",
      "blockHash": "0xfd7a5b09782b46ad9764c16633b2af5cf87c084186aa23c7a28e3bede886ef6e",
      "blockNumber": "0x3",
      "gasUsed": "0xb825",
      "effectiveGasPrice": "0x2dcb2ab0",
      "blobGasPrice": "0x1",
      "from": "0xf39fd6e51aad88f6f4ce6ab8827279cfffb92266",
      "to": "0x5fbdb2315678afecb367f032d93f642f64180aa3",
      "contractAddress": null
    },
    {
      "status": "0x1",
      "cumulativeGasUsed": "0x17056",
      "logs": [
        {
          "address": "0x5fbdb2315678afecb367f032d93f642f64180aa3",
          "topics": [
            "0xdf3d52f91c217cecdf0f0ca8f90fddeb94f26c26df4dc6d178b4e1e39b0aa134",
            "0x00000000000000000000000090f79bf6eb2c4f870365e785982e1f101e93b906",
            "0x9498a1d7ce43710ec2c6286af9e143b9e839f10b60ff4103e9499ae3cacc1488",
            "0x000000000000000000000000f39fd6e51aad88f6f4ce6ab8827279cfffb92266"
          ],
          "data": "0x000000000000000000000000000000000000000000000000000000006a3f5089",
          "blockHash": "0xfd7a5b09782b46ad9764c16633b2af5cf87c084186aa23c7a28e3bede886ef6e",
          "blockNumber": "0x3",
          "blockTimestamp": "0x6a3f5089",
          "transactionHash": "0xacd41e03fc1f4c0e44dcef89e6719a94861c5798cc27b9774f63360b536aa404",
          "transactionIndex": "0x1",
          "logIndex": "0x1",
          "removed": false
        }
      ],
      "logsBloom": "0x00000000000000000000000000000000000000000000000000000000000000000000000000000000000000000000000000000000000000000000000000000000000000000000000002000000000000000000000000000000000000000000000000000040000000000000000100004000000000000000000000000000000000000000000400000000000000000000000000000000000000000400000200000000000000000000000000000000000000000000000000000000000000080000000000000040000000200000000000000000400000002000000000000000000000000000000000000000002010000001000000000000000000000000000000000000",
      "type": "0x2",
      "transactionHash": "0xacd41e03fc1f4c0e44dcef89e6719a94861c5798cc27b9774f63360b536aa404",
      "transactionIndex": "0x1",
      "blockHash": "0xfd7a5b09782b46ad9764c16633b2af5cf87c084186aa23c7a28e3bede886ef6e",
      "blockNumber": "0x3",
      "gasUsed": "0xb831",
      "effectiveGasPrice": "0x2dcb2ab0",
      "blobGasPrice": "0x1",
      "from": "0xf39fd6e51aad88f6f4ce6ab8827279cfffb92266",
      "to": "0x5fbdb2315678afecb367f032d93f642f64180aa3",
      "contractAddress": null
    },
    {
      "status": "0x1",
      "cumulativeGasUsed": "0x22887",
      "logs": [
        {
          "address": "0x5fbdb2315678afecb367f032d93f642f64180aa3",
          "topics": [
            "0xdf3d52f91c217cecdf0f0ca8f90fddeb94f26c26df4dc6d178b4e1e39b0aa134",
            "0x00000000000000000000000015d34aaf54267db7d7c367839aaf71a00a2c6a65",
            "0x2a423060727a4831dc33916d06b48bcaaa0e914f0dcc984e7591a365b3e5bf12",
            "0x000000000000000000000000f39fd6e51aad88f6f4ce6ab8827279cfffb92266"
          ],
          "data": "0x000000000000000000000000000000000000000000000000000000006a3f5089",
          "blockHash": "0xfd7a5b09782b46ad9764c16633b2af5cf87c084186aa23c7a28e3bede886ef6e",
          "blockNumber": "0x3",
          "blockTimestamp": "0x6a3f5089",
          "transactionHash": "0xa1fafba6ca266bcdba31549f35ee34c07f5011f7652bb915b9c8ad53f4c95922",
          "transactionIndex": "0x2",
          "logIndex": "0x2",
          "removed": false
        }
      ],
      "logsBloom": "0x00000000040000000000000000000040000000000000000000000000000000000000000000000000000000000000000000000000000000000000000000000000000000000000000002000000000000000080000000000008000000000000000000000040000000000000000100000000000000000000000000000000000000000000000400000000000000000000000000000000000000000000000300000000000000000000000000000000000000000000000000000000000000080000000000000040000000200000000000000000000000002000000000000000000004000000000000000000000000000000000000000000000000000000000000000000",
      "type": "0x2",
      "transactionHash": "0xa1fafba6ca266bcdba31549f35ee34c07f5011f7652bb915b9c8ad53f4c95922",
      "transactionIndex": "0x2",
      "blockHash": "0xfd7a5b09782b46ad9764c16633b2af5cf87c084186aa23c7a28e3bede886ef6e",
      "blockNumber": "0x3",
      "gasUsed": "0xb831",
      "effectiveGasPrice": "0x2dcb2ab0",
      "blobGasPrice": "0x1",
      "from": "0xf39fd6e51aad88f6f4ce6ab8827279cfffb92266",
      "to": "0x5fbdb2315678afecb367f032d93f642f64180aa3",
      "contractAddress": null
    },
    {
      "status": "0x1",
      "cumulativeGasUsed": "0x2e0b8",
      "logs": [
        {
          "address": "0x5fbdb2315678afecb367f032d93f642f64180aa3",
          "topics": [
            "0xdf3d52f91c217cecdf0f0ca8f90fddeb94f26c26df4dc6d178b4e1e39b0aa134",
            "0x0000000000000000000000009965507d1a55bcc2695c58ba16fb37d819b0a4dc",
            "0xf7b3690e888f56aab8207ebc26898505bade655f744808634be5e4523dc80816",
            "0x000000000000000000000000f39fd6e51aad88f6f4ce6ab8827279cfffb92266"
          ],
          "data": "0x000000000000000000000000000000000000000000000000000000006a3f5089",
          "blockHash": "0xfd7a5b09782b46ad9764c16633b2af5cf87c084186aa23c7a28e3bede886ef6e",
          "blockNumber": "0x3",
          "blockTimestamp": "0x6a3f5089",
          "transactionHash": "0xd45d5c29fd470b9c3a95960f1da070e32c2a0f0b8841d878017ec8e0cf7cbceb",
          "transactionIndex": "0x3",
          "logIndex": "0x3",
          "removed": false
        }
      ],
      "logsBloom": "0x00000004000000000000000000000000000000000000000000000000000000000000400000000000000000000000000000000000000000000000000000000000000000000000000002000000000000000000000000008000000000000000000000000040000000000000000100000000000000000000000000000000008000000000000400000000000000000000000000000000000000000000000200000000000000000000000000000000000000000000000000000000000000080000000000000040800000200000000400000000000000002000000000000000000000000000000000000000000000000000000000000000000000000000000000000000",
      "type": "0x2",
      "transactionHash": "0xd45d5c29fd470b9c3a95960f1da070e32c2a0f0b8841d878017ec8e0cf7cbceb",
      "transactionIndex": "0x3",
      "blockHash": "0xfd7a5b09782b46ad9764c16633b2af5cf87c084186aa23c7a28e3bede886ef6e",
      "blockNumber": "0x3",
      "gasUsed": "0xb831",
      "effectiveGasPrice": "0x2dcb2ab0",
      "blobGasPrice": "0x1",
      "from": "0xf39fd6e51aad88f6f4ce6ab8827279cfffb92266",
      "to": "0x5fbdb2315678afecb367f032d93f642f64180aa3",
      "contractAddress": null
    }
  ],
  "libraries": [],
  "pending": [],
  "returns": {},
  "timestamp": 1782534281226,
  "chain": 31337,
  "commit": "4ce98bb"
}